:020000040800F2
:1000000000800220E5100008E1100008DF10000861
:10001000DF100008DF100008DF10000800000000FB
:10002000000000000000000000000000E1100008D7
:10003000E110000800000000E1100008310C000889
:10004000DF100008DF100008DF100008DF100008D4
:10005000DF100008DF100008DF100008DF100008C4
:10006000DF100008DF100008DF100008DF100008B4
:10007000DF100008DF100008DF100008DF100008A4
:10008000DF100008DF100008DF100008DF10000894
:10009000DF100008DF100008DF100008DF10000884
:1000A000DF100008DF100008DF100008DF10000874
:1000B000DF100008DF100008DF100008DF10000864
:1000C000DF100008DF100008DF100008DF10000854
:1000D000DF100008DF100008910C0008DF10000896
:1000E000DF100008DF100008DF100008DF10000834
:1000F000DF100008DF100008DF100008DF10000824
:10010000DF100008DF100008DF100008DF10000813
:10011000DF100008DF100008DF100008DF10000803
:10012000DF100008DF100008DF100008DF100008F3
:10013000DF100008DF100008DF100008DF100008E3
:10014000DF100008DF100008DF100008DF100008D3
:10015000DF100008DF100008DF100008DF100008C3
:10016000DF100008DF100008DF100008DF100008B3
:10017000DF100008DF100008DF100008DF100008A3
:10018000DF100008DF100008DF100008DF10000893
:10019000DF100008DF100008DF100008DF10000883
:1001A000DF100008DF100008DF10000838B5044633
:1001B000837863F07F0383700388632B25D0652BDE
:1001C00039D093B108238370002303800325284688
:1001D00038BD0423A3700325F9E7A37843F0010396
:1001E000A370A37813F0010FF1D120214FF09040BC
:1001F00000F017FE1D4B1B78B3B100F013FDA0609B
:100200004FF4FA73E36063232380A57815F00405A7
:10021000DFD1E168A06800F0B1FA0028DDD0A37852
:1002200023F00103A370DCE700F0FCFCA0607D2359
:10023000E36065232380A57815F004050DD1E168FE
:10024000A06800F09BFA60B1A37823F00103A370CB
:10025000A37813F0010FC8D0B9E70423A3700325D6
:10026000B5E7A37843F00103A370F1E70C00002089
:1002700010B50446837863F07F03837003883BB135
:10028000762B14D00823837000230380032010BD35
:100290004FF40051204800F0C1FD30BB1F4B00223D
:1002A0001A70A37803F07F03A37076232380A378CA
:1002B00013F004001DD113F0800F1ED143F0010391
:1002C000A370A37813F0010FE1D14FF4005112484D
:1002D00000F0A4FDA8B9114B1B7813B1104B0022FC
:1002E0001A700E4B00221A70DBE70C4B01221A70B9
:1002F000D7E70423A3700320C9E723F00103A37009
:10030000DFE7064B1B7813B9054B00221A70034B2D
:1003100001221A70C5E700BF000800480C00002049
:100320000D00002038B50446837863F07F038370A6
:100330000388002B00F0A080A92B00F23881902BBD
:10034000C0F03581903B192B00F23181DFE813F0CA
:100350009600B3002F01D3002F012F012F012F0191
:100360002F012F012F012F012F012F012F012F010D
:100370002F012F012F012F012F012F0145006200B6
:100380002F0183000423A370032515E143F001032B
:10039000A37081E00423A37003250DE1A37843F04B
:1003A0000103A37098E00423A370032504E123F064
:1003B0000103A370ABE0203AB8E01A32511A7F4A29
:1003C00082FB0132CB17C3EBE2031A2202FB1313A9
:1003D00041337B4A1370A6232380A37813F00405CE
:1003E00040F0CC80774A126812F0040F40F0CA80C7
:1003F00023F00103A370A37813F0010F40F0DC8019
:10040000704A136843F0040313606F4B00221A8094
:10041000A7232380A57815F0040540F0B780684B2A
:100420001978694800F004FB022840F2B380A378F1
:1004300023F00103A370A37813F0010F40F0BC80F8
:10044000604A136823F004031360A37803F07F036A
:10045000A370A9232380A37813F0040540F09F80A4
:1004600013F0800F40F09F8043F00103A370A37846
:1004700013F0010F40F0A08090232380A37813F0A5
:1004800004057FF47FAF4F4A126812F0080F7FF423
:100490007DAF23F00103A370A37813F0010F40F0A8
:1004A0008B80484A136843F008031360474B0022CF
:1004B0001A8091232380A57815F004057FF46AAF94
:1004C00001223F49414800F0EDFA02287FF666AF6D
:1004D000A37823F00103A370A37813F0010F6BD16D
:1004E000384A136823F008031360A37803F07F03EE
:1004F000A37093232380A37813F004057FF453AFF4
:1005000013F0800F7FF453AF43F00103A370A3787F
:1005100013F0010F50D12A4B1A782D4BD35C13F0F6
:1005200003033FF458AF022B3FF445AF413AD2B238
:10053000234B1A70274D2878274B195C4139C9B2D3
:10054000264B197001301D4B83FB00C39B1003EB3E
:10055000430C03EB8C03C31A2B70214B1B78002B2D
:100560003FF42BAF0A44154B83FB0213DB101A2117
:1005700001FB13234133124A13702CE70423A370A9
:10058000032519E043F00103A37034E70423A370AB
:10059000032511E0A37843F00103A3704BE7042384
:1005A000A370032508E023F00103A3705FE708238D
:1005B000A370002323800325284638BD4FECC44E8A
:1005C0000E00002070180020241900200C190020B3
:1005D000331200080D000020241200080F00002034
:1005E0000C00002008B5002000F0FCFC4FF4006077
:1005F00000F0F8FC4FF4005300221146054800F0CB
:1006000019FC2023002201214FF0904000F012FC41
:1006100008BD00BF0008004808B5FFF7E3FF064823
:1006200000F08CFA054800F00FF8054800F00CF8CF
:10063000044800F009F808BDE4110008AD01000805
:10064000710200082503000830B5334B1D781F2DBB
:1006500003D80024A646234603E000203AE00133F5
:10066000DBB21F2B37D803EB43022C4901EBC2024C
:100670005268824206D0002CF1D1002AEFD19E466A
:100680000124ECE7254A03EB4301CC0002EBC10156
:1006900000201053887049690968888020494B55AB
:1006A00001351D490D700EEB4E0102EBC102128A9D
:1006B0005AB91C490A88013292B20A800EEB4E0EDA
:1006C000164901EBCE0EAEF8102003EB430313489E
:1006D00000EBC30030BDE4B1104B0EEB4E02D40072
:1006E00003EBC202506000211953917050690068F9
:1006F00081800B4901F805E0013507490D70094873
:100700000188013189B2018011820EEB4E0E104634
:10071000E0E70020DEE700BF7D1800205006002043
:10072000500900207A180020002301E00133DBB2D9
:100730000E4A12789A4217D99C460D4AD25CFD2A7D
:10074000F4D802EB42020B4901EBC202526882422A
:10075000ECD1074BFE2203F80C20074A136843F044
:100760000103136001207047002070477D180020AE
:1007700050090020500600207018002038B50446AB
:100780000D4600F04FFA031BA04200D2013BAB42E2
:1007900001D9012038BD0020FCE7000038B5134B1B
:1007A0001D78002403E0013DEDB20134E4B2E5B16F
:1007B0000123A3400E4909680B42F6D004EB440123
:1007C0008B000C4919448B68013B8B60002BEAD1EC
:1007D000084904EB440083000B445868986004EB1C
:1007E00044029300CB589847DDE738BD78180020C5
:1007F000741800209005002010B5002423E004EBBD
:100800004403DA00214B134400215960204AFF20A1
:10081000105504EB4402D0001E4A024451601E4AA7
:1008200002EBC400586104EB440399001B4B0B44DA
:1008300042F83430C4EB0412D3001949194400F0D3
:1008400091F90134E4B21F2CD9D90023154A136061
:100850000F2B08D803EB43018A001349002088506E
:100860000133DBB2F4E70023104A1370104A13700F
:10087000104A1370202000F0B5F800F0E3F900F002
:1008800077F900F0B5F8FFF7C7FE10BD500600205D
:1008900050090020100000209004002010030020C8
:1008A0007009002074180020900500207D18002099
:1008B0007C1800207818002070B5FFF79DFF234BAF
:1008C00000221A801CE00134E4B2B44213D2204B5F
:1008D0001D5D05EB45031F4800EBC30043689847C7
:1008E0000328F0D105EB45051A4B03EBC5056868F5
:1008F000FFF71AFFE7E7184B1B6813F0010F03D14E
:10090000164B1E780024E0E7144A1178104A525C16
:10091000FE2A03D099B10139C9B2F7E74A1CD2B215
:1009200005E0541E0A48855C05550132D2B2B24238
:10093000F7D3013E064AFF209055F6B2EAE7074A90
:10094000167023F00103044A1360D9E77A180020D7
:100950005009002050060020701800207D1800204B
:100960000023438083800280816070478388B0F8D1
:1009700000C063450BD24288134493FBFCF20CFB8E
:10098000123382689BB2D1548388013383807047CD
:10099000438882881344028893FBF2FC02FB1C33D9
:1009A00082689BB2D15483880288934202D001337B
:1009B000838070474388013393FBF2F102FB1133CC
:1009C00043807047034681684288885C01321988F9
:1009D00092FBF1FC01FB1C225A809A88013A9A8012
:1009E00070470000014B1860704700BF801800205E
:1009F00010B5094C094B236009480A4B1860402286
:100A00000949FFF7ADFF402208492068FFF7A8FF1A
:100A100000F0DCF910BD00BF041900203C190020D3
:100A20004819002008190020C4180020841800204C
:100A300010B50446837843F08003837002883AB18E
:100A4000542A09D00823A37000232380032010BD5B
:100A5000124A11705422028013F0040015D1104A7A
:100A6000126811889288914213D023F00103A37079
:100A7000A37813F0010FEAD1084B1978084B1868D6
:100A8000FFF774FF00F0E2F8DCE70423A370032013
:100A9000DDE743F00103A370EAE700BF5A19002025
:100AA00008190020F8B50446837863F07F0383704B
:100AB00003883BB1D72B14D00823A37000232380D5
:100AC0000320F8BD194B1A70194B1960194B0022FD
:100AD0001A70184B1A78154B1B789A42ECD2D72310
:100AE0002380A37813F0040017D1134A1268928868
:100AF000BAB123F00103A370A37813F0010FE0D182
:100B00000C4D2E780A4B1F680B4B1868FFF75AFFE5
:100B1000B8552B7801332B70DBE70423A370032037
:100B2000CFE743F00103A370E6E700BF58190020A8
:100B300054190020591900200419002010B504464A
:100B40000AE0074B1868028883889A42F9D001347A
:100B5000FFF70CFF00F07AF821780029F1D110BDE1
:100B60000819002008B578220068FFF7F9FE08BDD3
:100B700010B582B0042000F00BFB244800F000FB0D
:100B800000F01AFB00F010FB022000F0E1F900F089
:100B900023F9042000F028F900F030F900F036F9CC
:100BA000002401940094234628220421022000F00E
:100BB00005FA204600F0CCF94FF4186000F012FA64
:100BC00040F6811000F00EFA40F6821000F00AFAAA
:100BD00040F6831000F006FA40F6841000F002FAA6
:100BE0004FF4406000F0FEF9032000F0DDF92046EC
:100BF00000F08AF9064B074A1360074A1360074A58
:100C00001360074B1C6002B010BD00BF80380100AC
:100C100000B4C404000000200400002008000020EC
:100C20005C190020014B1868704700BF5C19002058
:100C300008B5034A136801331360FFF7AFFD08BD21
:100C40005C19002008B500F0DBF908BD0C4B1B68EF
:100C500013F0100F00D0704710B543F01003084A8E
:100C60001360084B1868FFF7ADFE0146064B18707D
:100C7000064C204600F02BFA204600F01EFA10BD6C
:100C8000701800200819002061190020004400405D
:100C900010B54FF04023D3F8003413F0200F06D0E6
:100CA0004FF04023D3F81C3413F0200F1AD14FF02B
:100CB0004023D3F8003413F0800F1DD04FF04023B1
:100CC000D3F81C3413F0800F16D0124B18688388A9
:100CD0009BB9114800F0F6F9104A136823F010038D
:100CE000136009E00C4800F0F6F9C1B20C4B197022
:100CF0000C4B1868FFF74CFE10BDFFF763FE014672
:100D0000094B1870044C204600F0E1F9204600F031
:100D1000D4F9F1E7081900200044004070180020C1
:100D200060190020041900206119002038B505461B
:100D3000262000F049FA40F6113000F053F9042360
:100D4000002202214FF0904000F074F808230022A6
:100D500002214FF0904000F06DF808230122114667
:100D60004FF0904000F088F8042207214FF09040A7
:100D700000F09DF8082207214FF0904000F097F80E
:100D8000114C2946204600F043F90821204600F086
:100D900069F90021204600F06EF90C21204600F090
:100DA00076F90021204600F06CF90021204600F081
:100DB00074F9204600F086F9204600F079F92046C3
:100DC00000F071F938BD00BF0044004008B54FF491
:100DD0006140FFF7ABFF08BD024A136843F480731C
:100DE0001360704700200240034A136823F0070392
:100DF00018431060704700BF00200240024A136889
:100E000043F480631360704700200240024A136875
:100E100043F40073136070470020024000690840EB
:100E20007047436901EA030221EA030141EA0241F2
:100E3000816170472DE9F0410568C46800264FF0D4
:100E4000030E43FA06F7FF070FD577000EFA07FCEB
:100E50006FEA0C0C01FA07F80CEA05050CEA040429
:100E600002FA07F748EA05053C430136102EE8D19F
:100E70000560C460BDE8F081012941680CBF1943D9
:100E80009943F0B5416081680024032643FA04F5D4
:100E9000ED0707D5650006FA05F721EA070102FA12
:100EA00005F529430134102CF0D18160F0BDF0B577
:100EB000076A466A00234FF00F0C42FA03F4E50775
:100EC00007D59D000CFA05F427EA040701FA05F599
:100ED0002F430133082BF0D14FF00F0C42FA03F4EB
:100EE000E4070AD503F18044083CA4000CFA04F599
:100EF00026EA050601FA04F426430133102BEDD14E
:100F000007624662F0BD0000032808D8DFE800F061
:100F1000160F08020D4A136813F00C0FFBD170472F
:100F20000A4A1368C3F38103012BFAD17047074AB9
:100F30001368C3F38103022BFAD17047034A136885
:100F4000C3F38103032BFAD1704700BF081002409E
:100F500006280AD8DFE800F0040A0F14191B1D0048
:100F60000D4A136843F08073136070470A4A136890
:100F700043F48033F8E7084A136843F48073F3E7D7
:100F8000054A136843F00103EEE7044AF9E7044A0F
:100F9000F7E7044AF5E700BF001002409010024056
:100FA0009410024098100240034A136823F0030390
:100FB00018431060704700BF0810024030B5049C11
:100FC000039D640644F0807444EA4554204318436A
:100FD00040EA02200139024B40EA0110186030BD9E
:100FE0000C100240430903F1804303F5043300F081
:100FF0001F021968012090400843186070470000E4
:10100000024A136843F00403136070470008065057
:101010000F4A904210B54FEA510306D10D4A1268AB
:101020001344B3FBF1F1C16010E00B4C0B4AA0423A
:101030001268F5D1B2FBF1F001FB102203EB0223A1
:10104000B3FBF1F1064B01EB0021196010BD00BFAD
:10105000003801400800002000800040040000200B
:101060000C800040036808290CBF23F4805343F42C
:10107000805303607047436823F440531943416031
:101080007047036823F4C063194301607047036825
:1010900023F00C03194301607047836823F4407305
:1010A000194381607047036843F001030360704790
:1010B000036843F0200303607047036843F0800334
:1010C00003607047036823F0800303607047C1F337
:1010D000080181627047406AC0F308007047FEE76C
:1010E0007047000038B51B491B4C1C4800225318A0
:1010F00083421BD31A4A002193421BD3194A1A4C2C
:1011000013681A4D43F400731360536F43F4700374
:101110005367AC4211D3164C164DAC4211D3FFF7B6
:10112000CBFB154C154DAC420FD338BD1359535062
:101130000432DCE719600433DEE754F8043B9847D7
:10114000E7E754F8043B9847E7E754F8043B98472F
:10115000E9E700BF00000020341300080C00002065
:101160006419002014ED00E0341300083413000863
:101170003413000834130008341300083413000833
:10118000024B20F07F401860704700BF14E000E081
:10119000044A136800F0040023F0040303431360BF
:1011A000704700BF10E000E0024A136843F00203FA
:1011B0001360704710E000E0024A136843F0010337
:1011C0001360704710E000E0054B420903EB820317
:1011D00000F01F00012202FA00F01860704700BF03
:1011E00000E100E00A7372632F7461726765745FD7
:1011F0006D325F3134466562323032322E632C20DC
:101200006275696C74206F6E2046656220313420EF
:10121000323032322061742031393A35383A34393B
:101220000A00000054454E4E45535345455445432E
:1012300048000020202020202020202028282828A6
:101240002820202020202020202020202020202096
:1012500020202088101010101010101010101010E6
:1012600010101004040404040404040404101010F6
:1012700010101010414141414141010101010101A2
:101280000101010101010101010101010101101030
:101290001010101042424242424202020202020276
:1012A0000202020202020202020202020202101002
:1012B00010102000000000000000000000000000EE
:1012C000000000000000000000000000000000001E
:1012D000000000000000000000000000000000000E
:1012E00000000000000000000000000000000000FE
:1012F00000000000000000000000000000000000EE
:1013000000000000000000000000000000000000DD
:1013100000000000000000000000000000000000CD
:1013200000000000000000000000000000000000BD
:0413300000000000B9
:0C13340000093D0000093D0000093D00DB
:04000005080010E5FA
:00000001FF